:100000000C942A000C94B10C0C94D80C0C94FF0C9A
:100010000C9447000C9447000C940F0E0C94C10DE7
:100020000C94E80D0C949A0D0C94A90A0C944700BA
:100030000C9447000C9447000C9447000C94470024
:100040000C9447000C9447000C9447000C94470014
:100050000C94470011241FBECFE5D8E0DEBFCDBF12
:1000600015E0A0E6B0E0E4EEF1E202C005900D92EA
:10007000A43BB107D9F725E0A4EBB5E001C01D9280
:10008000A23EB207E1F70E948D0A0C94F0100C9486
:1000900000000F931F93CF9364E170E080EA90E03B
:1000A0000E942808813009F4E2C063E070E081E03A
:1000B00090E00E94C00989E890E00E94A90963E0ED
:1000C00070E082E090E00E94C00984E990E00E9424
:1000D000A9092FEF87EA91E6215080409040E1F78F
:1000E00000C000000E94BC0960E070E081E090E088
:1000F0000E94C0098FE990E00E94A90960E070E0C9
:1001000082E090E00E94C009C0E022C00E94860800
:100110008C018823D9F099270E9461096C2F70E027
:10012000FB01E453FA4F00832FEF89E698E1215059
:1001300080409040E1F700C0000082E090E00E9423
:10014000C0098AE290E00E94610901C0C150CF5FFE
:10015000C430E0F21092D005C0E015C06C2F70E002
:10016000FB01E453FA4F408150E080EA90E00E94A6
:100170000A082FEF83EC99E0215080409040E1F78E
:1001800000C00000CF5FC43048F30E94BC0960E0AB
:1001900070E081E090E00E94C0098FEA90E00E9448
:1001A000A90960E070E082E090E00E94C009C0E030
:1001B00022C00E9486088C018823D9F099270E94CA
:1001C00061096C2F70E0FB01E053FA4F00832FEFC1
:1001D00089E698E1215080409040E1F700C000009E
:1001E00082E090E00E94C0098AE290E00E946109EA
:1001F00001C0C150CF5FC430E0F21092D405C0E01E
:1002000017C06C2F70E0FB01E053FA4F408150E0C3
:10021000685F7F4F80EA90E00E940A082FEF83EC2E
:1002200099E0215080409040E1F700C00000CF5F8E
:10023000C43038F30E94BC0960E070E081E090E0D7
:100240000E94C0098EEB90E00E94A9092FEF89E679
:1002500098E1215080409040E1F700C0000041E06B
:1002600050E064E170E080EA90E00E940A08CF91DB
:100270001F910F9108950E94BC098BEC90E00E94A1
:10028000A90960E070E082E090E00E94C0098DED75
:1002900090E00E94A9092FEF89E698E12150804063
:1002A0009040E1F700C0000088EE90E00E94F50762
:1002B00088E091E00E94F50788EE90E00E94F50743
:1002C0000E94F8078F3FE1F38133B9F487E391E0AF
:1002D0000E94F5070E94BC0960E070E081E090E0B8
:1002E0000E94C00988E391E00E94A9090E94940A33
:1002F00087E491E00E94F5070895823309F784E5C9
:1003000091E00E94F5070E94BC0960E070E081E086
:1003100090E00E94C00985E591E00E94A9092FEFB5
:1003200089E698E1215080409040E1F700C000004C
:1003300008958130D9F488E00E94160C813059F478
:1003400069E070E082E090E00E94C00982E691E0FE
:100350000E94A909089569E070E082E090E00E949F
:10036000C00988E691E00E94A90908958230D9F475
:100370008EE10E94160C813059F469E070E082E051
:1003800090E00E94C00982E691E00E94A9090895C8
:1003900069E070E082E090E00E94C00988E691E0A8
:1003A0000E94A90908958330D9F48FE10E94160CA8
:1003B000813059F469E070E082E090E00E94C00969
:1003C00082E691E00E94A909089569E070E082E068
:1003D00090E00E94C00988E691E00E94A909089572
:1003E0008430D1F48EE00E94160C813059F469E01B
:1003F00070E082E090E00E94C00982E691E00E94F5
:10040000A909089569E070E082E090E00E94C009C7
:1004100088E691E00E94A90908950E948608882331
:10042000E1F308958AED91E00E94F50789EE91E0ED
:100430000E94F50788EF91E00E94F5070E94F807F7
:100440008133E1F787E391E00E94F5070E94940A67
:1004500087E491E00E94F5070895FF920F931F93A0
:10046000CF93DF93C82F88E00E94160CD82F8EE11F
:100470000E94160C182F8FE10E94160C082F8EE098
:100480000E94160CF82E8FE00E94160CC130A1F4C9
:1004900083E192E00E94F507D13029F484E292E0F2
:1004A0000E94F5076AC0D11168C085E392E00E94FE
:1004B000F5071092B40561C0C23091F487E492E070
:1004C0000E94F507113029F487E592E00E94F507B4
:1004D00054C0111152C088E692E00E94F5074DC049
:1004E000C33091F487E492E00E94F507013029F4CB
:1004F0008AE792E00E94F50740C001113EC08BE8F8
:1005000092E00E94F50739C0C43099F487E492E084
:100510000E94F50781E0F81205C08DE992E00E9483
:10052000F5072BC0F11029C08FEA92E00E94F50771
:1005300024C0C53049F482EC92E00E94F50787E4BC
:1005400092E00E94F50719C0C63069F487E492E092
:100550000E94F50781ED92E00E94F50787E492E0A2
:100560000E94F5070AC0C73041F487E492E00E9478
:10057000F50780EE92E00E94F507DF91CF911F9181
:100580000F91FF900895CF93DF93D82F0E94BC095D
:1005900060E070E081E090E00E94C0098FE093E0AD
:1005A0000E94A90960E070E082E090E00E94C0092A
:1005B0008DE193E00E94A9092FEF89E698E121508F
:1005C00080409040E1F700C000000E948608C82FDC
:1005D0008F3FD9F3D13089F481E00E949901C13372
:1005E00039F488E00E944E0C81E00E942D0242C046
:1005F000C23359F70E943D033DC0D23089F482E0F6
:100600000E949901C13339F48EE10E944E0C82E0C0
:100610000E942D022FC0C233C1F60E943D032AC0A2
:10062000D33089F483E00E949901C13339F48FE11A
:100630000E944E0C83E00E942D021CC0C23329F69A
:100640000E943D0317C0D43009F0BFCF84E00E9460
:100650009901C13351F48EE00E944E0C8FE00E944C
:100660004E0C84E00E942D0205C0C23309F0ADCFCC
:100670000E943D03DF91CF9108950E94BC0960E084
:1006800070E081E090E00E94C00987E293E00E9460
:10069000A90960E070E082E090E00E94C00988E370
:1006A00093E00E94A9090E9486088F3FE1F38133FD
:1006B00021F481E00E94C3020895823321F482E094
:1006C0000E94C3020895833321F483E00E94C30291
:1006D0000895843321F484E00E94C302089588239E
:1006E00011F30E94BC098FEF92E00E94A9092FEF3D
:1006F00089E698E1215080409040E1F700C0000079
:100700000895CF93C82F8EE093E00E94F5078CE107
:1007100093E00E94F50788EF91E00E94F5070E94A0
:10072000F807C13071F4813339F488E00E944E0C2F
:1007300081E00E942D0238C0823389F70E94D603DF
:1007400033C0C23071F4813339F48EE10E944E0C13
:1007500082E00E942D0228C0823309F70E94D6034E
:1007600023C0C33071F4813339F48FE10E944E0C01
:1007700083E00E942D0218C0823389F60E94D603BE
:1007800013C0C43061F6813351F48EE00E944E0CE8
:100790008FE00E944E0C84E00E942D0205C082333F
:1007A00009F0BDCF0E94D603CF91089586E293E071
:1007B0000E94F50787E393E00E94F50788EF91E038
:1007C0000E94F5070E94F807813321F481E00E941E
:1007D00081030895823321F482E00E948103089509
:1007E000833321F483E00E9481030895843351F719
:1007F00084E00E94810308951092B6051092B50519
:1008000008950E94BC0961E070E081E090E00E94E0
:10081000C00983EC93E00E94A9092FEF89E698E1D3
:10082000215080409040E1F700C000000E94BC09C8
:1008300060E070E081E090E00E94C00988E493E00D
:100840000E94A90963E070E082E090E00E94C00984
:1008500084EF93E00E94A9090E9486088F3F41F32C
:10086000813319F40E943B01E3CF823329F40E94C3
:100870003D030E94BC09DCCF833351F40E94BC09C4
:100880000E94FC0386E00E942D020E945A04D0CFF1
:10089000882371F20E94BC098FEF92E00E94A9099F
:1008A0002FEF89E698E1215080409040E1F700C0A9
:1008B0000000BECFEF92FF921F93CF93DF9300D043
:1008C00000D0CDB7DEB70E94BC0965E070E081E0E2
:1008D00090E00E94C00988E593E00E94A90960E0C9
:1008E00070E082E090E00E94C0098FE593E00E94F2
:1008F000A9090E940D02813309F4EAC0823309F488
:10090000CDC1D1C180916000882309F4D8C00E9474
:10091000BC0960E070E081E090E00E94C0098EE6D2
:1009200093E00E94A90960E070E082E090E00E94FC
:10093000C0098FE793E00E94A90910E024C00E943B
:1009400086087C018823E9F099270E946109612FBC
:1009500070E0FB01E453FA4FE0822FEF89E698E163
:10096000215080409040E1F700C000006B5F7F4F56
:1009700082E090E00E94C0098AE290E00E94610952
:1009800001C011501F5F1430D0F21092D00510E05A
:100990000FC0E12EF12CB70180EA90E00E942808F8
:1009A000E1E0F0E0EC0FFD1FEE0DFF1D80831F5F07
:1009B000143078F320E040E011C0822F90E0E1E0B5
:1009C000F0E0EC0FFD1FE80FF91F3081FC01E4534C
:1009D000FA4F8081381301C04F5F2F5F243068F3D6
:1009E000443009F581E08093B605109260000E94C2
:1009F000BC0985E893E00E94A90960E070E082E00C
:100A000090E00E94C0098DE893E00E94A9092FEFB1
:100A100089E698E1215080409040E1F700C0000055
:100A20000E945D064CC00E94BC0963E070E081E05A
:100A300090E00E94C0098AE993E00E94A90962E05F
:100A400070E082E090E00E94C00986EA93E00E9494
:100A5000A9098091600090E08F960E9461092FEFB4
:100A600083ED90E3215080409040E1F700C000000A
:100A700080916000815080936000811120C080913E
:100A8000B6058823C9F01BC00E9400082FEF81EE35
:100A900094E0215080409040E1F700C000000E94A7
:100AA00005082FEF81EE94E0215080409040E1F75F
:100AB00000C000001F5F01C010E01E3128F32FEFBF
:100AC00083EC99E0215080409040E1F700C00000A5
:100AD0008091B605813309F015CFE5C080916000A3
:100AE000882309F4D2C00E94BC0960E070E081E074
:100AF00090E00E94C00982EB93E00E94A90960E0A7
:100B000070E082E090E00E94C0098FE793E00E94CD
:100B1000A90910E024C00E9486087C018823E9F01E
:100B200099270E946109612F70E0FB01E053FA4FA1
:100B3000E0822FEF89E698E1215080409040E1F774
:100B400000C000006B5F7F4F82E090E00E94C00910
:100B50008AE290E00E94610901C011501F5F1430C9
:100B6000D0F21092D40510E011C0E12EF12CB701A3
:100B7000685F7F4F80EA90E00E942808E1E0F0E0A3
:100B8000EC0FFD1FEE0DFF1D80831F5F143068F317
:100B900020E040E011C0822F90E0E1E0F0E0EC0FB7
:100BA000FD1FE80FF91F3081FC01E053FA4F8081EF
:100BB000381301C04F5F2F5F243068F34430C9F40D
:100BC00081E08093B505109260000E94BC0985E821
:100BD00093E00E94A9092FEF89E698E12150804017
:100BE0009040E1F700C0000085E00E942D020E94C5
:100BF00001040E94BC0963E070E081E090E00E9483
:100C0000C0098AE993E00E94A90962E070E082E0ED
:100C100090E00E94C00986EA93E00E94A9098091B1
:100C2000600090E08F960E9461092FEF83ED90E3C2
:100C3000215080409040E1F700C0000080916000AA
:100C4000815080936000811120C08091B505882378
:100C5000C9F01BC00E9400082FEF81EE94E02150E4
:100C600080409040E1F700C000000E9405082FEF8F
:100C700081EE94E0215080409040E1F700C00000F8
:100C80001F5F01C010E01E3128F32FEF89E698E1C5
:100C9000215080409040E1F700C000008091B505F0
:100CA000813309F01BCF0F900F900F900F90DF91C1
:100CB000CF911F91FF90EF90089588EF91E00E94EF
:100CC000F50782EC93E00E94F50782ED93E00E9425
:100CD000F50781EE93E00E94F50783EF93E00E9411
:100CE000F5078EEF93E00E94F50788EF91E00E94F0
:100CF000F5070E94F807803329F40E94BC090E947E
:100D00001A07DBCF813319F40E941202D6CF823347
:100D100019F40E94D603D1CF833359F481E194E0D2
:100D20000E94F5070E94BC090E94FC030E945A041D
:100D30000895843311F60E949E06BFCF1F93CF9370
:100D4000DF938CE494E00E94F50781E694E00E9432
:100D5000F50782E794E00E94F5070E94F8079927BB
:100D60008233910599F18333910509F45DC0C197F0
:100D700009F05CC08CE494E00E94F5078BE994E0F4
:100D80000E94F50710E01BC0C12FD0E00E94F807B9
:100D9000FE01E453FA4F80838823B1F3482F50E0DB
:100DA000BE0180EA90E00E940A082FEF83EC99E0F0
:100DB000215080409040E1F700C000001F5F1430D8
:100DC00018F381EB94E00E94F50730C08CE494E0C6
:100DD0000E94F5078BE994E00E94F50710E01DC022
:100DE000C12FD0E00E94F807FE01E053FA4F808344
:100DF0008823B1F3482F50E0BE01685F7F4F80EA3F
:100E000090E00E940A082FEF83EC99E02150804087
:100E10009040E1F700C000001F5F143008F385EC3C
:100E200094E00E94F50702C00E945D06DF91CF9119
:100E30001F9108950F931F93CF93DF930E94BC09D6
:100E400060E070E081E090E00E94C00988ED94E0ED
:100E50000E94A90988ED95E00E94A90988E00E94F6
:100E6000160C082F8EE10E94160C182F8FE10E949D
:100E7000160CD82F8EE00E94160CC82F013079F482
:100E80008EED94E00E94F50769E070E081E090E06B
:100E90000E94C0098CEE94E00E94A9090EC082EF66
:100EA00094E00E94F50769E070E081E090E00E9424
:100EB000C00981E095E00E94A909113079F488E029
:100EC00095E00E94F50760E070E082E090E00E940B
:100ED000C00986E195E00E94A9090EC08CE195E069
:100EE0000E94F50760E070E082E090E00E94C00997
:100EF0008BE295E00E94A909D13079F482E395E074
:100F00000E94F50767E070E082E090E00E94C0096F
:100F100080E495E00E94A9090EC089E495E00E9452
:100F2000F50767E070E082E090E00E94C00988E584
:100F300095E00E94A90982E695E00E94F5070E94CB
:100F4000F807803309F044C00E94BC0960E070E0FB
:100F500081E090E00E94C00988ED94E00E94A90918
:100F600088ED95E00E94A909C130C9F48BE695E0AF
:100F70000E94F50768E070E081E090E00E94C009FF
:100F800089E795E00E94A90960E070E082E090E0C6
:100F90000E94C0098FE795E00E94A909D0CF86E89A
:100FA00095E00E94F50768E070E081E090E00E9423
:100FB000C00985E995E00E94A90960E070E082E03F
:100FC00090E00E94C0098FE795E00E94A909B7CF81
:100FD000813309F0B4CF0E945D06DF91CF911F915C
:100FE0000F9108950E94910E08950E941D0F08957B
:100FF0000E94300F089561E08CE00E94940B0895E8
:1010000061E08CE00E94120B089560E08CE00E9489
:10101000120B08951F93CF93DF93D62F142FC82F51
:10102000CE7F0E943E0E8C2F0E94530E883161F4B9
:101030008D2F0E94530E883239F4812F0E94530E57
:10104000883211F40E94810EDF91CF911F91089593
:10105000FF920F931F93CF93DF931F92CDB7DEB70D
:10106000F62E082F0E7F182F116019820E943E0E57
:101070008830D9F4802F0E94530E8831B1F48F2D1F
:101080000E94530E883289F40E943E0E803169F42A
:10109000812F0E94530E803441F4CE0101960E94AC
:1010A000690E883511F40E94810E89810F90DF91BD
:1010B000CF911F910F91FF9008951F93CF93DF93CE
:1010C00010E00DC0C12FD0E0CF58DF4F60E0888125
:1010D0000E94940B61E088810E94120B1F5F143004
:1010E00088F310E00DC0C12FD0E0CB58DF4F61E096
:1010F00088810E94940B61E088810E94120B1F5F1F
:10110000143088F3DF91CF911F910895EF92FF92F1
:101110000F931F93CF93DF93D0E034C0ED2EF12CCB
:10112000F701EB58FF4F60E080810E94120BC0E096
:101130001FC00C2F10E0F801EF58FF4F80810E9474
:10114000160C811114C0F801EF58FF4F80810E94E6
:10115000160C8823C1F3C701880F991F880F991FA8
:101160008F599F4FFC01E00FF11F80810EC0CF5FB0
:10117000C430F8F2F701EB58FF4F61E080810E9424
:10118000120BDF5FD43050F280E0DF91CF911F91DE
:101190000F91FF90EF900895CF93C82F60E089E002
:1011A0000E94120B80E00E948F0C8F709C2F907F0A
:1011B000682F692B80E00E94A10C60E08DE00E9406
:1011C000120B8FE891E00197F1F700C0000061E099
:1011D0008DE00E94120B8FE19EE40197F1F700C0B1
:1011E000000080E00E948F0C90E1C99F90011124C3
:1011F0008F70682F622B80E00E94A10C60E08DE070
:101200000E94120B8FE891E00197F1F700C00000F7
:1012100061E08DE00E94120B8FE39FE10197F1F7EF
:1012200000C00000CF91089561E084E00E94940B1B
:1012300061E085E00E94940B61E086E00E94940BDF
:1012400061E087E00E94940B61E089E00E94940BCA
:1012500061E08AE00E94940B61E08DE00E94940BB3
:1012600061E084E00E94120B61E085E00E94120BB5
:1012700061E086E00E94120B61E087E00E94120BA1
:1012800060E08AE00E94120B61E08DE00E94120B88
:101290002FEF89EF90E0215080409040E1F700C0AF
:1012A000000083E30E94CC0882E30E94CC0888E21D
:1012B0000E94CC0886E00E94CC088CE00E94CC08FA
:1012C0000895CF93C82F61E089E00E94120B80E05F
:1012D0000E948F0C8F709C2F907F682F692B80E06D
:1012E0000E94A10C60E08DE00E94120B8FE891E05B
:1012F0000197F1F700C0000061E08DE00E94120B41
:101300008FE19EE40197F1F700C0000080E00E94A9
:101310008F0C90E1C99F900111248F70682F622B70
:1013200080E00E94A10C60E08DE00E94120B8FE82B
:1013300091E00197F1F700C0000061E08DE00E94AC
:10134000120B8FE39FE10197F1F700C00000CF91EE
:1013500008950F931F93CF938C01C0E003C00E94A8
:101360006109CF5FF801EC0FF11D80818111F7CF8A
:10137000CF911F910F91089581E00E94CC080895AC
:10138000813019F0823039F00895862F8F7080688F
:101390000E94CC080895862F8F70806C0E94CC0824
:1013A00008950E94EF0A08950E94FE0A9695879577
:1013B00096958795089561E08AE10E94940B0895BF
:1013C00061E08AE10E94120B089560E08AE10E94C8
:1013D000120B0895CF92DF92EF92FF92CF93DF939B
:1013E000CDB7DEB728970FB6F894DEBF0FBECDBFDE
:1013F0006B017C0161E08DE10E94940B2CE137ECE4
:1014000041EB5FE3C701B6010E94211020E030E00C
:101410004AE753E40E94350F20E030E040E85FE304
:101420000E94340F6B017C0167E873E182E00E9447
:101430008B0DC701B6010E94A10F80E00E948B0DA9
:1014400088E0E9E7F0E0DE01119601900D928A95BF
:10145000E1F7CE0101960E943C0D28960FB6F89454
:10146000DEBF0FBECDBFDF91CF91FF90EF90DF9039
:10147000CF900895CF93DF93CDB7DEB72A970FB6FD
:10148000F894DEBF0FBECDBF0E9414090E945D0814
:101490000E94FB070E94DB098FE00E94360E83E06A
:1014A000898387E08A83CE0101960E94D10988E072
:1014B000E1E8F0E0DE01139601900D928A95E1F7E4
:1014C000CE0103960E94F20761E088E00E94940B2F
:1014D00061E08EE10E94940B61E08FE10E94940B29
:1014E00061E08EE00E94940B61E08FE00E94940B1B
:1014F00060E081E00E94940B60E070E084E393E49C
:101500000E94EA090E94260D2A960FB6F894DEBFC3
:101510000FBECDBFDF91CF9108950E943A0A0E947D
:1015200049000E945A04FDCF60E070E0CB010E94A8
:10153000EA092FEF83ED90E3215080409040E1F7DE
:1015400000C0000060E070E084E393E40E94EA09D8
:1015500008951F920F920FB60F9211242F933F936D
:101560004F935F936F937F938F939F93AF93BF93AB
:10157000EF93FF938091B9058F5F8093B9058A300F
:10158000E8F01092B90581E00E94D4099093B80563
:101590008093B7054AE050E068ED75E00E94B01016
:1015A0008091B7059091B8058D31910518F00E9492
:1015B000E00904C0459710F40E94E509FF91EF91FE
:1015C000BF91AF919F918F917F916F915F914F915B
:1015D0003F912F910F900FBE0F901F901895FC0117
:1015E00090819295990F990F907C97B996B18181CE
:1015F000892B86B986B1806886B9089597B1907EA7
:101600008F71892B87B986B1806486B9349BFECFF0
:1016100086B1806186B924B185B190E0982F882782
:10162000822B0895982F9695969596958770913070
:1016300021F130F09230F1F1933009F458C008955F
:10164000613069F44BB321E030E0B90102C0660FAC
:10165000771F8A95E2F7CB01842B8BBB08954BB3A0
:1016600021E030E0B90102C0660F771F8A95E2F7EA
:10167000CB01809584238BBB0895613069F448B316
:1016800021E030E0B90102C0660F771F8A95E2F7CA
:10169000CB01842B88BB089548B321E030E0B90129
:1016A00002C0660F771F8A95E2F7CB0180958423ED
:1016B00088BB0895613069F445B321E030E0B90199
:1016C00002C0660F771F8A95E2F7CB01842B85BB9A
:1016D000089545B321E030E0B90102C0660F771FDD
:1016E0008A95E2F7CB018095842385BB089561300C
:1016F00069F442B321E030E0B90102C0660F771F00
:101700008A95E2F7CB01842B82BB089542B321E096
:1017100030E0B90102C0660F771F8A95E2F7CB016E
:101720008095842382BB0895982F969596959695DB
:101730008770913021F130F09230F1F1933009F45B
:1017400058C00895613069F44AB321E030E0B9012E
:1017500002C0660F771F8A95E2F7CB01842B8ABB04
:1017600008954AB321E030E0B90102C0660F771F47
:101770008A95E2F7CB01809584238ABB0895613076
:1017800069F447B321E030E0B90102C0660F771F6A
:101790008A95E2F7CB01842B87BB089547B321E0FC
:1017A00030E0B90102C0660F771F8A95E2F7CB01DE
:1017B0008095842387BB0895613069F444B321E0A8
:1017C00030E0B90102C0660F771F8A95E2F7CB01BE
:1017D000842B84BB089544B321E030E0B90102C0FA
:1017E000660F771F8A95E2F7CB018095842384BB2F
:1017F0000895613069F441B321E030E0B90102C0DD
:10180000660F771F8A95E2F7CB01842B81BB089581
:1018100041B321E030E0B90102C0660F771F8A951D
:10182000E2F7CB018095842381BB0895982F96958C
:1018300096959695482F4770913081F028F0923018
:10184000B9F09330F9F028C099B3892F90E002C025
:10185000959587954A95E2F78170089526B330E013
:10186000C90102C0959587954A95E2F78170089560
:1018700023B330E0C90102C0959587954A95E2F7F8
:101880008170089520B330E0C90102C09595879515
:101890004A95E2F78170089580E00895982F969513
:1018A000969596958770913099F028F09230E9F0EE
:1018B000933041F108954BB321E030E0B90102C00B
:1018C000660F771F8A95E2F7CB0184278BBB0895BB
:1018D00048B321E030E0B90102C0660F771F8A9556
:1018E000E2F7CB01842788BB089545B321E030E0BF
:1018F000B90102C0660F771F8A95E2F7CB018427F2
:1019000085BB089542B321E030E0B90102C0660F03
:10191000771F8A95E2F7CB01842782BB0895813037
:1019200041F028F0823039F0833039F008C08BB3B1
:10193000089588B3089585B3089582B3089580E02B
:101940000895813041F028F0823039F0833039F049
:1019500008956BBB089568BB089565BB089562BB8D
:1019600008951F920F920FB60F9211242F933F9359
:101970004F935F936F937F938F939F93AF93BF9397
:10198000EF93FF93E091BE05F091BF050995FF919C
:10199000EF91BF91AF919F918F917F916F915F91E7
:1019A0004F913F912F910F900FBE0F901F90189560
:1019B0001F920F920FB60F9211242F933F934F93C4
:1019C0005F936F937F938F939F93AF93BF93EF93A7
:1019D000FF93E091BC05F091BD050995FF91EF9152
:1019E000BF91AF919F918F917F916F915F914F9137
:1019F0003F912F910F900FBE0F901F9018951F923F
:101A00000F920FB60F9211242F933F934F935F9332
:101A10006F937F938F939F93AF93BF93EF93FF93B6
:101A2000E091BA05F091BB050995FF91EF91BF9147
:101A3000AF919F918F917F916F915F914F913F9166
:101A40002F910F900FBE0F901F9018958EE48CBFB2
:101A500083B7886083BF83B78F7B83BF83B7816081
:101A600083BF83B78D7F83BF83B7846083BF789440
:101A700089B7826089BF0895FC019FB5808183701A
:101A8000892B8FBD2EB5908196959695892F90E0E4
:101A9000880F991F880F991F880F991F822B8EBD61
:101AA0009EB58181892B8EBD2FB5928130E4939FA5
:101AB000C0011124822B8FBD2FB5938130E1939FFC
:101AC000C0011124822B8FBD29B79481892F90E00A
:101AD000880F991F880F991F822B89BF29B796817C
:101AE000892F90E0880F991F880F991F880F991FE1
:101AF000822B89BF29B7958130E1939FC0011124C2
:101B0000822B89BF29B7978130E2939FC0011124AE
:101B1000822B89BF0895813039F018F0823039F076
:101B200008957BBD6ABD089579BD68BD089577BDF0
:101B300066BD08951F920F920FB60F9211242F9336
:101B40003F934F935F936F937F938F939F93AF9345
:101B5000BF93EF93FF93E091C605F091C7050995F8
:101B6000FF91EF91BF91AF919F918F917F916F9175
:101B70005F914F913F912F910F900FBE0F901F904B
:101B800018951F920F920FB60F9211242F933F9327
:101B90004F935F936F937F938F939F93AF93BF9375
:101BA000EF93FF93E091C405F091C5050995FF916E
:101BB000EF91BF91AF919F918F917F916F915F91C5
:101BC0004F913F912F910F900FBE0F901F9018953E
:101BD0001F920F920FB60F9211242F933F934F93A2
:101BE0005F936F937F938F939F93AF93BF93EF9385
:101BF000FF93E091C205F091C3050995FF91EF9124
:101C0000BF91AF919F918F917F916F915F914F9114
:101C10003F912F910F900FBE0F901F9018951F921C
:101C20000F920FB60F9211242F933F934F935F9310
:101C30006F937F938F939F93AF93BF93EF93FF9394
:101C4000E091C005F091C1050995FF91EF91BF9119
:101C5000AF919F918F917F916F915F914F913F9144
:101C60002F910F900FBE0F901F901895880F82B97B
:101C70008EE080B9089581B1887F089586B780622B
:101C800086BF86B78F7E86BF86B78F7B86BF86B7B7
:101C9000846086BF86B7806886BF06B607FEFDCF24
:101CA0000E943B0E089583B986B78F7D86BF86B7A5
:101CB0008F7E86BF86B78F7B86BF86B7846086BFE0
:101CC00086B7806886BF06B607FEFDCF0E943B0E32
:101CD0000895FC0196B79F7D96BF96B79F7E96BFED
:101CE00096B79F7B96BF96B7946096BF96B790685D
:101CF00096BF06B607FEFDCF83B180830E943B0EE0
:101D0000089586B78F7D86BF86B7806186BF86B708
:101D10008F7B86BF86B7846086BF86B7806886BFA4
:101D20000895CF93DF93EC018A818130F9F48BB170
:101D300082608BB928813981C901A0E0B0E0880FA9
:101D4000991FAA1FBB1F880F991FAA1FBB1F9C01A9
:101D5000AD01220F331F441F551F60E074E284EF72
:101D600090E00E948E102150310922C08BB18D7FEE
:101D70008BB928813981C901A0E0B0E0880F991F93
:101D8000AA1FBB1F880F991FAA1FBB1F9C01AD0173
:101D9000220F331F441F551F220F331F441F551F8F
:101DA00060E074E284EF90E00E948E1021503109CF
:101DB00029B980B59B81973039F48AB184608AB99A
:101DC00080B5866880BD08C020B5892F90E0880F57
:101DD000991F822B806880BD20B59D8130E1939F43
:101DE000C0011124822B806880BD20B59C81892F81
:101DF00090E0880F991F880F991F880F991F822BD9
:101E0000806880BD2AB19E81892F90E0880F991F3C
:101E1000880F991F880F991F822B8AB92AB19F8139
:101E200030E1939FC0011124822B8AB9DF91CF91B9
:101E300008955D9BFECF8CB908950F931F93CF93A8
:101E40008C01C0E003C00E94190FCF5FF801EC0FB6
:101E5000F11D80818111F7CFCF911F910F910895CE
:101E60005F9BFECF8CB108955058BB27AA270E94D4
:101E70004C0F0C94E70F0E94D90F38F00E94E00F2E
:101E800020F039F49F3F19F426F40C94D60F0EF489
:101E9000E095E7FB0C94D00FE92F0E94F80F58F360
:101EA000BA17620773078407950720F079F4A6F53F
:101EB0000C941A100EF4E0950B2EBA2FA02D0B01E6
:101EC000B90190010C01CA01A0011124FF27591B7F
:101ED00099F0593F50F4503E68F11A16F040A22F85
:101EE000232F342F4427585FF3CF469537952795F6
:101EF000A795F0405395C9F77EF41F16BA0B620BF5
:101F0000730B840BBAF09150A1F0FF0FBB1F661F3B
:101F1000771F881FC2F70EC0BA0F621F731F841F7E
:101F200048F4879577956795B795F7959E3F08F0A4
:101F3000B0CF9395880F08F09927EE0F9795879566
:101F400008950E94001088F09F5798F0B92F9927A4
:101F5000B751B0F0E1F0660F771F881F991F1AF094
:101F6000BA95C9F714C0B13091F00E941A10B1E0CF
:101F700008950C941A10672F782F8827B85F39F0CE
:101F8000B93FCCF3869577956795B395D9F73EF42D
:101F900090958095709561957F4F8F4F9F4F0895D5
:101FA00097F99F6780E870E060E008959FEF80EC0C
:101FB000089500240A9416161706180609060895AF
:101FC00000240A9412161306140605060895092E15
:101FD0000394000C11F4882352F0BB0F40F4BF2B84
:101FE00011F460FF04C06F5F7F4F8F4F9F4F0895C4
:101FF00057FD9058440F551F59F05F3F71F04795BA
:10200000880F97FB991F61F09F3F79F0879508959E
:10201000121613061406551FF2CF4695F1DF08C0BD
:10202000161617061806991FF1CF869571056105DA
:1020300008940895E894BB2766277727CB0197F982
:1020400008950E9434100C94E70F0E94D90F38F0C5
:102050000E94E00F20F0952311F00C94D00F0C9407
:10206000D60F11240C941B100E94F80F70F3959F4B
:10207000C1F3950F50E0551F629FF001729FBB277F
:10208000F00DB11D639FAA27F00DB11DAA1F649F1B
:102090006627B00DA11D661F829F2227B00DA11DCE
:1020A000621F739FB00DA11D621F839FA00D611D54
:1020B000221F749F3327A00D611D231F849F600D75
:1020C000211D822F762F6A2F11249F5750409AF09E
:1020D000F1F088234AF0EE0FFF1FBB1F661F771F2A
:1020E000881F91505040A9F79E3F510580F00C94F5
:1020F000D00F0C941B105F3FE4F3983ED4F3869509
:1021000077956795B795F795E7959F5FC1F7FE2B94
:10211000880F911D9695879597F90895A1E21A2E3B
:10212000AA1BBB1BFD010DC0AA1FBB1FEE1FFF1F7B
:10213000A217B307E407F50720F0A21BB30BE40BCB
:10214000F50B661F771F881F991F1A9469F7609512
:102150007095809590959B01AC01BD01CF010895CC
:102160004532510520F4423010F00C94BB10FB01B5
:102170001082CB010895BB274A3031F4992322F411
:10218000BDE2909581959F4F0C94C710BB27FB0132
:102190005527AA27880F991FAA1FA41710F0A41B60
:1021A00083955051B9F7A05DAA3308F0A95DA193BA
:1021B000009779F7B111B1931192CB010C94E01013
:1021C000DC01FC01672F71917723E1F7329704C09E
:1021D0007C916D9370836291AE17BF07C8F3089529
:0421E000F894FFCFA1
:1021E400033738392F3435362A3132332D43303DD5
:1021F4002B14151617020312130E0302000000001D
:1022040000802500030000010157656C636F6D6554
:1022140020546F00536D61727420486F6D650053D4
:1022240065742041646D696E20506173733A005384
:102234006574205573657220506173733A00416C64
:102244006C2050617373205365740041646D696E32
:10225400204F6E6C79204163636573730057616925
:1022640074696E672E2E2E000D2D2D2D2D2D2D2DE6
:102274002D2D2D2D2D2D2D2D2D2D2D2D2D2D2D2D8A
:102284002D2D2D2D2D2D2D000D557365722052658C
:102294007175657374656420546F204F70656E208A
:1022A400446F6F720D312D4F70656E2020322D52A8
:1022B40065667573650A000D446F6F72204F706513
:1022C4006E6564203573000D446F6F7220436C6F2C
:1022D400736564000D41646D696E2044656E6965C3
:1022E400640053743A4F4E0053743A4F46460057B5
:1022F400656C636F6D6520746F20736D61727420FB
:10230400686F6D650A000D7365742061646D696E94
:1023140020706173732C706C656173653A0A000DEB
:1023240041646D696E2070617373776F726420739A
:102334006574200A000D73657420757365722070CE
:10234400617373200A000D55736572207061737395
:10235400776F7264207365740A000D537461747529
:102364007320436C6F736564000D312D4F70656E7F
:1023740020202020202020000D2D2D2D2D2D2D2D31
:102384002D2D2D2D2D2D2D2D2D2D2D2D2D2D2D2D79
:102394002D2D000D2D2D2D2D2D2D2D2D2D2D2D2DB6
:1023A4002D2D0A000D204C6564204F4E2D3E3E52CB
:1023B4006F6F6D31000D204C6564206F66662D3E95
:1023C4003E526F6F6D31000D2D2D2D2D2D2D2D2D88
:1023D4002D2D2D2D2D2D000D204C6564204F4E2DBF
:1023E4003E3E526F6F6D32000D204C6564206F6667
:1023F400662D3E3E526F6F6D32000D204C65642099
:102404004F4E2D3E3E526F6F6D33000D204C656470
:10241400206F66662D3E3E526F6F6D33000D203285
:102424004C6564204F4E2D3E3E526F6F6D34000D4F
:1024340020324C6564206F66662D3E3E526F6F6D90
:1024440034000D2055736572204C4F475F494E2070
:10245400000D2055736572204C4F475F4F55540053
:102464000D205573657220526571756573746564CA
:1024740020546F204F70656E20446F6F72200020CF
:102484002057726F6E6720696E70757421000D316C
:102494002D4C4544204F4E2F4F4646000D322D52B1
:1024A4006F6F6D7320000D312D526F6F6D312032BF
:1024B4002D526F6F6D32000D332D526F6F6D3320BF
:1024C400342D526F6F6D3400312D446F6F722020A4
:1024D400322D526F6F6D73004C4F472D494E0031B2
:1024E4002D41646D696E20322D5573657200456E01
:1024F4007465722041646D696E205061737300705D
:102504006173733A007375636365737300426C752A
:1025140065746F6F7468204F4E0057726F6E67203A
:102524007061737321005472696573206C656674FD
:102534003A00456E7465722055736572205061735C
:1025440073000D436F6E74726F6C207379737465CE
:102554006D000D302D496E666F726D6174696F6E1A
:10256400000D312D446F6F7220200D322D526F6F8C
:102574006D73000D332D4C6F672D4F7574000D3442
:102584002D4368616E67652050617373776F726461
:10259400000D20204C4F4745445F4F555420000DFB
:1025A400204C4F475F494E0A000D20456E746572FA
:1025B40020596F75722070617373776F72643A0A71
:1025C400000D204661696C6564210A000D2D2D2DD6
:1025D4002D2D2D2D2D2D2D2D2D2D2D2D2D2D2D2D27
:1025E400000D4368616E67652050617373776F7285
:1025F40064000D312D41646D696E205061737377F1
:102604006F72640D322D5573657220506173737748
:102614006F72640D332D4261636B000D456E7465FA
:1026240072204E65772050617373776F72643A201D
:10263400000D41646D696E2070617373776F72640D
:1026440020736574000D5573657220706173737720
:102654006F7264207365740054656D703A000D5296
:102664006F6F6D31204C4544204F4E0052312D4F39
:102674004E000D526F6F6D31204C4544204F46463D
:102684000052312D4F4646000D526F6F6D32204C73
:102694004544204F4E0052322D4F4E000D526F6F65
:1026A4006D32204C4544204F46460052322D4F4651
:1026B40046000D526F6F6D33204C4544204F4E0041
:1026C40052332D4F4E203E30000D526F6F6D33202C
:1026D4004C4544204F46460052332D4F4646203E3B
:1026E40030000D4D6F72653E3E30000D526F6F6DC0
:1026F40034204C4544204F4E0052342D4F4E00425E
:1027040061636B3E31000D526F6F6D34204C454454
:10271400204F46460052342D4F4646000D537461F7
:102724007475733A4F4E000D5374617475733A4F58
:042734004646000015
:00000001FF
